:020000041000EA
:1000000000B5324B212058609868022188439860DF
:10001000D860186158612E4B002199600221596106
:100020000121F02299502B49196001219960352056
:1000300000F044F80222904214D00621196600F024
:1000400034F8196E01211966002018661A6600F04E
:100050002CF8196E196E196E052000F02FF8012189
:100060000842F9D1002199601B49196000215960AB
:100070001A491B48016001219960EB211966A021F2
:10008000196600F012F800219960164914480160C1
:100090000121996001BC002800D000471248134993
:1000A000086003C880F30888084703B5996A0420EC
:1000B0000142FBD001200142F8D103BD02B5186610
:1000C0001866FFF7F2FF186E186E02BD00000240BE
:1000D000000000180000070000035F00212200005C
:1000E000F4000018222000A00001001008ED00E03C
:1000F00000000000000000000000000074B24E7A12
:1001000000200420F7010010C3010010C5010010F9
:10011000C1010010C1010010C1010010C101001097
:10012000C1010010C1010010C1010010C701001081
:10013000C1010010C1010010C9010010CB01001065
:10014000CD010010CD010010CD010010CD01001037
:10015000CD010010CD010010CD010010CD01001027
:10016000CD010010CD010010CD010010CD01001017
:10017000CD010010CD010010CD010010CD01001007
:10018000CD010010CD010010CD010010CD010010F7
:10019000CD010010CD010010CD010010CD010010E7
:1001A000CD010010CD010010CD010010CD010010D7
:1001B000CD010010CD010010CD010010CD010010C7
:1001C00000BE00BE00BE00BE00BE00BEEFF3058054
:1001D000103800BEF2EB8871002D0010242D0010A5
:1001E0003402001090A31AE700201F49086006C8D7
:1001F00081F3088810471D48006800282FD10DA4FE
:100200000ECC002902D000F012F8F9E71849194A7B
:10021000002000E001C19142FCD1174988471749ED
:1002200088471749884700BEFDE701C901C29A42C5
:10023000FBD37047242D0010C000002014030020C1
:10024000782F00100000042000000420782F0010F8
:10025000001004200010042000000000704709482E
:1002600002F018F90047000008ED00E0000000D09F
:1002700018030020080800200D230010B903001007
:10028000012400105756000006005250ABB36053D3
:10029000742C001006005250861C0302842C00109F
:1002A000060052505422A29D8C2C00100500525082
:1002B000DE65F468782F0010F8B5C0460448054B99
:1002C00010B5834203D0044B002B00D0984710BDDB
:1002D0001403002014030020000000000648074912
:1002E000091A8B10C90FC91810B5491003D0044B57
:1002F000002B00D0984710BD1403002014030020E9
:100300000000000010B5074C2378002B09D1FFF73F
:10031000D5FF054B002B02D0044800E000BF0123AD
:10032000237010BD4006002000000000182C0010B3
:10033000054B10B5002B03D00449054800E000BF71
:10034000FFF7CCFF10BDC0460000000044060020AF
:10035000182C001010B5012904D002291AD0002948
:100360000AD010BD8021134B49005A5C00689C5C88
:10037000013204615A54F4E702220E4BFF32995CB9
:1003800000290DD101680869802149005854FF39BE
:100390009954E6E702220021064BFF329954E0E728
:1003A0008021006849005A5C0069985401325A540F
:1003B000D7E7C04674060020F0B5DE4657464E46E5
:1003C0004546E0B583B002F0E9FA02F0E7FA01F041
:1003D000BDFE1F211C2001F0F1FD002200211C2088
:1003E00001F004FE802400211C2001F011FEE02217
:1003F000ED4BA4011B68D20163401340EB4A04217A
:100400001360032001F0DAFD0421082001F0D6FD7D
:1004100004210C2001F0D2FD04210F2001F0CEFDBB
:100420000421132001F0CAFD0421102001F0C6FDB3
:100430001A2001F001FE022001F0FEFD062001F06D
:10044000FBFD072001F0F8FD0A2001F0F5FD0B206F
:1004500001F0F2FD0D2001F0EFFD0E2001F0ECFDAA
:10046000152001F0E9FD142001F0E6FD122001F055
:10047000E3FD112001F0E0FD1B2001F0DDFD09206E
:1004800001F0DAFD162001F0D7FDD02380221B06F3
:10049000D2045A6293468020042280215A62C0000E
:1004A00092463C325A62814659625862802000016D
:1004B000586280468020C0015C6284465862802772
:1004C00080268025802080247603ED028002BF03F1
:1004D00024055F625E625D6258625C628024A400F3
:1004E0005C628024E4035C625C469C6154469C61CF
:1004F0004C469A6199619C6144469C618024A401A8
:100500009C6164469C61802424059F619E619D617D
:1005100098615C618024A4005C618024E403002075
:100520005C6101249426A24BA24D5861D8611862E7
:100530005D629A615C6118659865D8651D665A654B
:100540001C65986758500431585004315D5004318F
:10055000DA679C67585098510436985104369D517B
:100560000C3E9A515C505861D86118625D629A6184
:100570005C6118609860D8601D615A60FE221C6042
:100580008D4CD20523688D4853401B0C1B0403601F
:100590008B4B8C4D1968FE23DB0159400904090C73
:1005A00029608949894D096859400904090C296065
:1005B0008749884D09685140090C09042960216860
:1005C0004A40120C12040260834A0420126853400D
:1005D0001B04824A1B0C136001F02EFD0321042032
:1005E00001F0ECFC00220121042001F0FFFC0520B9
:1005F00001F022FD0321052001F0E0FC0022012191
:10060000052001F0F3FC764C7649200000F04AFA10
:1006100017212000744A00F0BFF9744B98464346F6
:10062000FB229B5C012B00D1E4E00A239946019355
:10063000093B9A466E4B8025002600279B465A4C64
:100640006D005B4604221A6023682B42FCD063686D
:1006500050461B041B0C0136FF1800F09FFD4E4551
:10066000EFDB3800019901F06FFF83B21B0AC0B2C3
:100670004146FE228B54FF23C8540B78012B00D136
:100680002BE1022B00D13DE1D02380221B069203F7
:100690009A61802252039A61474B1A68FE23DB0558
:1006A00053401B0C454A1B04136043469B78012BA7
:1006B00000D1FEE0022B00D136E1D02380221B06C0
:1006C000D2029A61802292029A61434B1A68FE23F9
:1006D000DB0153401B04414A1B0C136043461B794A
:1006E000012B00D1D1E0022B00D114E1D0238022D4
:1006F0001B06D2009A61802212019A61324B1A685D
:10070000FE23DB0153401B04304A1B0C136043469D
:100710009B79012B00D1A3E0022B00D11CE1D02357
:1007200080221B0692019A618022D2019A61284B95
:100730001A68FE23DB0553401B0C264A1B0413607A
:1007400043461B7A012B77D0022B00D1FCE0D0234B
:1007500080221B06D2049A6104229A61164B1A6801
:10076000FE23DB0553401B0C144A1B041360434655
:100770009B7A012B4ED0022B00D1DEE0D023402209
:100780001B069A6140329A610D4B1A68FE23DB0109
:1007900053401B040B4A1B0C13604346FB229B5C1B
:1007A000012B00D041E725E000C0044000D0044008
:1007B00000000540FFFF000020000540201005401C
:1007C0005C0005405C100540840005408410054035
:1007D00098000540981005400C0005400C1005409D
:1007E00038020020801A060055030010740600200D
:1007F00000E004404246FB33D35C9946002B00D115
:10080000B3E0FD234946D05C01F076FE4B468246BC
:1008100001930FE7D02340221B065A6140329A61B0
:10082000534B19684346DA7A13029B1A4B40514ADC
:100830001B041B0C1360F2E6D02380221B06D2049B
:100840005A6104229A614C4B196843465A7A130242
:100850009B1A1B044B40494A1B0C1B04136086E780
:10086000D02380221B0692015A618022D2019A6114
:10087000434B19684346DA7913029B1A1B044B4019
:10088000404A1B0C1B0413605AE7D02380221B062E
:10089000D2005A61802212019A613B4B196843468B
:1008A0005A7913029B1A4B40384A1B041B0C1360E5
:1008B0002DE7D02380221B06D2025A6180229202A9
:1008C0009A61334B19684346DA7813029B1A4B40FE
:1008D000304A1B041B0C136000E7D02380221B0648
:1008E00092035A61802252039A61234B196843464E
:1008F0005A7813029B1A1B044B40204A1B0C1B0402
:100900001360D2E6D02380221B0692039A618022D4
:1009100052035A61E9E7D02380221B06D2009A6174
:10092000802212015A61B8E7D02380221B06D2022E
:100930009A61802292025A61C3E7D02340221B06AB
:100940009A6140325A616BE7D02380221B06D204A1
:100950009A6104225A6176E7D02380221B06920115
:100960009A618022D2015A6182E7002000237FE64B
:100970005C0005405C10054020000540201005404B
:1009800098000540981005408400054084100540FB
:100990000C0005400C10054070B50D4C0500041B03
:1009A00063425C410B4BE0001A5028000A00012111
:1009B00000F0A2F82B68084A173420001A63074990
:1009C00000F01CFE0121200000F0FEFD70BDC046BD
:1009D00030020020C007002064060000C100002093
:1009E000F8B5DE4657464E4645468346E0B50520F7
:1009F0000C0001F0DDFA060060082100801901F00A
:100A0000A3FD43009846804407000521404601F0BD
:100A10009BFD3B1A9A46204B8146700080199C42F0
:100A200034D81E4901F090FD451C5B461C6800232C
:100A30000422E36623680120534002321A408023D7
:100A40005B0123431A605346E3614B4623624346EE
:100A50004F2B03D95021404601F076FDA023E050F2
:100A6000E36F22005D4080237C322D045B01134341
:100A70002D0C1D60012339003000E36601F064FD98
:100A8000F0BCBB46B246A946A046F8BD044901F0F9
:100A90005BFD451CC9E7C0463F420F0080969800A9
:100AA00040787D01104A70B5821A53425A4107239B
:100AB00052429A430D4B10321A600D4B0D4C1A6086
:100AC0001500A3689D432B1EFAD166240268FF34EB
:100AD0000571D5661460633C8833FF3CD56395632C
:100AE000D450FFF77DFF70BD3802002000E00040C9
:100AF00000F0004000C0004003680020D8660029D4
:100B00000DD080211868890041400A4801408020AA
:100B10004001184301609A600122DA667047412162
:100B20001A684A4003490A408021490119430A6072
:100B3000F2E7C04641020000024B18688007C00F70
:100B40007047C04600C0064070B5EFF3108C72B617
:100B50000D4D2B68002BFCD0BFF35F8F0724CB0813
:100B6000C618C05C01230C40A3401C000440034293
:100B700007D118433070BFF35F8F2C608CF310885F
:100B800070BD100001F040FC2C0100D00021044B8E
:100B9000044ABFF35F8F02C39342FAD17047C04645
:100BA000000100D0800100D0044A1078431CDBB261
:100BB000172B00D9102313707047C0464002002045
:100BC00083680B4810B584466144624412010901F0
:100BD00059189B185C684A680120944201D802D0D9
:100BE0000020C0B210BD1A680B689A42F9D8F7E726
:100BF000FFFFFF0F0A4B1968EFF3108072B60A6807
:100C0000002AFCD0BFF35F8F1B68BFF35F8F002209
:100C10001A6080F3108840BF002000217047C04652
:100C2000E8070020F8B5574645464E46DE46E0B593
:100C300098460CAB1C780DAB1B78070091469A4682
:100C40000568002C5ED1AC7B002C3BD06600296887
:100C50003619033E89194B78AB73002B00D1EB7327
:100C600000238B704B700B702D4BE218BB68120188
:100C70009B184A461A6042465A600A9A9A600B9A32
:100C8000DA6000238B704B700B706B7B9B46002BE4
:100C90002BD022005946A8686B6898472A6800281C
:100CA00016D05B4658465B005B449619033BB07018
:100CB000D118D35C002B00D073705B460C706B7343
:100CC0005C4513D0F0BCBB46B246A946A046F8BD71
:100CD0005B465B005B44033BD3189C709119925DAB
:100CE000002A00D05A705B460B706C734A4643462C
:100CF000387D00F0E3FB051E0AD10E9B002BE1D0EE
:100D00001D70DFE7660029683619033E8919ABE7D5
:100D10005346002BF1D12100386800F0A9FFECE721
:100D2000FFFFFF0FF0B5DE4657464E46454600230F
:100D3000E0B58BB00893684B8200D45800239B46E3
:100D4000099000F027FB02000B006068EFF3108AA7
:100D500072B6564601680029FCD0B246BFF35F8FD9
:100D600021684F7B8C46002F2ED0A5685B49A94691
:100D700079180901894449460868496805000E0048
:100D8000AD1A9E41002E5FDD02000B00099800F0B5
:100D900095FB002300229946002306920793002327
:100DA00098466368BFF35F8F5A461A608AF31088CB
:100DB0004346002B12D10028C3D10BB0F0BCBB4678
:100DC000B246A946A046F0BD002300229946002362
:100DD00006920793002300209846E2E7089B4946C5
:100DE00018023843C047626805000E00EFF3108A0E
:100DF00072B61368002BFCD0BFF35F8F002E41DB6F
:100E00002B00334302D02369002B56D12368D97BB2
:100E1000002905D01A68480041185218033A577043
:100E20009A7B002A00D19F73DF73E268013FD35D94
:100E30000133D3555B4623616368BFF35F8F5A4626
:100E40001A608AF310887CE7002E02D1002D00D0B2
:100E50009AE70021604600F089FE4B461A685B68FD
:100E6000069207934B469B6898464B46DB6899462B
:100E7000E368DB19013B1B7808931B0203432361E2
:100E800000208EE72369002BC0D0069A079B8021A3
:100E9000521BB34109068B4202D30122104B52422E
:100EA00000210491013103914946019141462000FE
:100EB00002970091FFF7B6FEBCE700F06BFA2A003C
:100EC000330012184B41802109068B42E8D30122DE
:100ED000034B5242E4E7C046D4070020FFFFFF0F58
:100EE000FFFFFF7F10B5144C6368002B04D00A216C
:100EF000124800F0FBFC10BD2300114A10212068AD
:100F000000F04AFD032000F039FA032000F03EFB18
:100F100003200C4900F08CFAFFF746FE0A4B9C4672
:100F200003232375D0231B061B6860446375074B9E
:100F300080006060DC60DAE744020020E8070020FF
:100F4000C10B0010250D001040000034D407002014
:100F5000F0B557464E464546DE46E0B585B00193AE
:100F600010AB1B780600039300239A469846009224
:100F70007268EFF3108B72B61368002BFCD0BFF3CE
:100F80005F8F3568AC7B002C00D16FE067002B6869
:100F90003F19033FDB195A78AA73002A00D1EA737C
:100FA0004B4AA118B26809015218009801991060C3
:100FB00051600E9991600F99D16042469A705A70B3
:100FC0001A706B7B9946002B00D170E022004946D5
:100FD000A8686B6898472A6800285BD04B4648464B
:100FE0005B004B44D719033BB870D118D35C002B7E
:100FF00000D07B704B460C706B734C4558D0F36837
:101000001B19013B18787368BFF35F8F42461A6063
:101010008BF310885346002B08D10002204305B003
:10102000F0BCBB46B246A946A046F0BD039B002BD0
:101030004BD00E9B00200F999847030004000D0031
:101040000B4342D000291ADA009A019B121BAB41D4
:101050000092019380221206934204D301231D4C77
:101060005B4200930194039B9A4681E77368BFF348
:101070005F8F1C608BF3108801204042CFE700F0A7
:1010800089F9802224184D41120600940195954259
:10109000E9D3E3E74B465B004B44033BD3189C701A
:1010A000D119D25D002A00D05A704B460B706C7378
:1010B000307D009A019B00F001FA824600289ED004
:1010C0002100306800F0D4FD99E70020A7E7C04672
:1010D000FFFFFF0FFFFFFF7FF0B504000D000626A6
:1010E0007642F717C64636196F4100B584B08F4275
:1010F00014D811D000F04EF932003B00121A8B4187
:10110000002B15DC002B3ED02000290000F080F9D8
:1011100004B080BCB846F0BD8642EBD9002600275B
:1011200000F038F932003B00121A8B41002BE9DD48
:10113000002302930193154B3200009314483B00A7
:10114000FFF706FF0028DFDB00239846BC46114A64
:10115000114F7B6A9C4504D8B96AB142D4D29C45F0
:10116000D2D11168EFF3108072B60B68002BFCD05F
:10117000BFF35F8F1368BFF35F8F4146196080F341
:10118000108820BFE5E7002ABED0D1E7F50B00109C
:1011900044020020E80700200040054070B506002A
:1011A00000F0F8F8FA2204000D00002330000021BE
:1011B000920001F051FA8023001969411B069942FF
:1011C00002D3012002494042FFF786FF70BDC046AE
:1011D000FFFFFF7FF0B5EFF30583CE46474680B5AE
:1011E00005000C0085B0002B0DD0324A0020536A58
:1011F0009C4203D8926A0130AA4232D305B0C0BCE7
:10120000B946B046F0BD2C4E029301932B4B020021
:10121000009330000B00FFF79BFE031EE5DD20BFAF
:101220007168EFF3108772B60A68002AFCD0BFF32A
:101230005F8FDAB294463068427B624516D0FF2257
:1012400001681A4089465100884649469044414405
:101250000339897800290BD13269934210D1316169
:101260000EE0E31A5A1E9341D8B2C7E7FF221A4094
:10127000F1681B0A8A18013A1278DBB29A4214D03C
:101280007368BFF35F8F00221A6087F31088094BE1
:1012900000205A6A9442B1D89B6A0130AB42ADD269
:1012A000A41A631E9C41E0B2A8E7614600F0E0FC8E
:1012B000E6E7C0460040054044020020F50B001060
:1012C000F0B5EFF30582D6464F4646461000C0B54E
:1012D0001038EFF3108872B6214C2368002BFCD035
:1012E000BFF35F8F0123190081401E4D1F0069630A
:1012F000AA461D4D29601D4D2E78AC463500C540CF
:101300002F402B4215D053465F6A194B8500EB588E
:101310009F4218D36246174B8E43EB581670BFF3AB
:101320005F8F0022226088F31088002B06D0984738
:1013300004E0BFF35F8F276088F31088E0BCBA46F3
:10134000B146A846F0BD0C4B92009C46624413681F
:101350001360BFF35F8F0023236088F31088EDE7ED
:10136000280100D0004005403C70054006080020E0
:10137000EC0700205C060020D03F054010B5034B71
:1013800001001800024AFFF7DFFB10BD040800202F
:10139000182C0010034B596A0A00986A596A8A424D
:1013A000FAD170470040054070B504000D00174A9F
:1013B000536A1900966A536A8B42FAD130001900B9
:1013C00024184D41AB4216D813D0104B2A005B6A4B
:1013D0009D4203D90D494B6A9342FCD3934207D1F6
:1013E0000A4A02E0516A994202D1916AA142F9D3B4
:1013F00070BDA642E9D9054B5B6A1C005A1CEFD0B0
:10140000012201246442E5175242E3E7004005400F
:10141000064A536A9942FCD807D1044B02E05A6A43
:10142000914202D19A6A8242F9D370470040054046
:1014300070B504000D00EFF3108672B61A4A1368F7
:10144000002BFCD0BFF35F8F002D1BD0200000F0DD
:10145000CDF8164981420AD0200000F0CFF80121D2
:10146000200000F0B1F80123A340114A1360114B92
:10147000A400E550BFF35F8F00220B4B1A6086F388
:10148000108870BD0121A1400A4BA200D5500A4B23
:1014900020001A788A4305491A7000F0D9F8002113
:1014A000200000F091F8E5E7280100D0C1120010FB
:1014B000386005405C06002006080020F0B54F4665
:1014C000D6464646C0B507002B4C616A0D00A66A99
:1014D000616AA942FAD18B4208D805D00120E0BC4C
:1014E000BA46B146A846F0BDB242F7D9EFF3108A2A
:1014F00072B6224801680029FCD0BFF35F8F012536
:10150000BD401F491C4C8846097889462943C9B209
:101510008C46414660460870391D890065630A5152
:101520001849B8004350216A0020294219D0616A45
:101530000800A66A616A8142FAD18B4219D801D1AA
:10154000B24216D8CC450BD00B4B1F221D625D63F7
:1015500001233A4093400C4A136043464A461A70AE
:101560000120BFF35F8F0022044B1A608AF31088BA
:10157000B5E70020F5E7C04600400540280100D04F
:1015800006080020EC07002080E200E0EFF3108C5A
:1015900072B60A490B68002BFCD0BFF35F8F0123A2
:1015A0008340074A0748136202789A430270BFF3E8
:1015B0005F8F00230B608CF310887047280100D0E8
:1015C000004005400608002001238340002904D084
:1015D000034A1360034A13607047034A1360FBE732
:1015E00080E200E000E100E080E100E0024B10302A
:1015F0009B688000C058704700ED00E070B50D009A
:10160000EFF3108672B60F4A1368002BFCD0BFF3BD
:101610005F8F0D4B10309B6884001B590B4A93421F
:1016200003D09D4201D000F007FF074B9B681D517E
:10163000BFF35F8FBFF35F8F0022024B1A6086F308
:10164000108870BD240100D000ED00E0CD01001035
:10165000F0B5DE4657464E464546E0B50C0083B031
:10166000EFF3108872B65D4A1368002BFCD0BFF30D
:101670005F8F5B4B5B499A68030010339F00D5591D
:101680008D4239D0A5424AD0574EAA1B2F2A33D8B3
:1016900001229246824091464846544A12681040C0
:1016A00001904846524A1060BFF35F8FEFF3058206
:1016B0009346002A35D0934201D000F0BDFE2A00A7
:1016C00053469A439068844208D175E04B005B18FA
:1016D0009B00F3189868A04234D01A000621515696
:1016E0000029F3DA844253D0019B002B26D04A46CE
:1016F000404B1A603D4B1A60394B9B68DD51BFF37C
:101700005F8FBFF35F8F0022344B1A6088F310881D
:1017100003B0F0BCBB46B246A946A046F0BD0D00E2
:10172000EAE72A0053469A4390688442D6D10620BD
:1017300010561300002809DA0D0031E04A462C4B00
:101740001A60D9E706201856002822DB420011183B
:10175000890074188A46A1689960E179D9710621D7
:1017600061569971002925DBA488F11A64052415B6
:1017700054440919E0240905490D240221439980A4
:1017800013181D4A9B001178F31899711070ABE77C
:1017900013005946002914D1FF31917117499180E6
:1017A00015490A789A71164A9B1B5B415A43120DE0
:1017B0000A7099E71349E2E7062010561300002843
:1017C000C4DA114A1149D21A083A5002400D0143B5
:1017D00099800F4952080A43DA8085E7240100D036
:1017E00000ED00E0CD0100106C02002000E100E0FF
:1017F00080E100E080E200E00508002001BDFFFF7D
:10180000AAAA000001BD0000A602002000F0FFFF10
:1018100000F8FFFF70B5EFF3058101240443EFF3F7
:10182000108C72B6214A1368002BFCD0BFF35F8F77
:101830001F4B05001F4AED1A6D416A43120D1E4DE4
:101840008900AE6852B27658A6421CD0062159567D
:1018500091421CD012215956914222D01E21595634
:10186000914220D02A2159560324914210D0134B83
:1018700019781A708171BFF35F8F00220B4B1A60C9
:101880008CF3108870BDAB680D4C5C50EFE7002402
:101890006100091989005B18FF2199710949998034
:1018A000E5E70124F4E70224F2E7C046240100D072
:1018B0006C020020AAAA000000ED00E0050800204C
:1018C000CD01001001BDFFFF054B064A1360064A1B
:1018D000136053609360D3601361536193617047E9
:1018E0008080808000E400E004E400E0024B9C463D
:1018F00061448900016070474000003410B5040065
:10190000FFF752F901002000FFF7F0FFFF232371DA
:10191000BFF35F8F10BDC04610B50400FFF744F958
:1019200001002000FFF7E2FFFF23A380BFF35F8FDA
:1019300010BDC04670B505000E001400002923D06C
:10194000002A12D080686B689847296800280ED05A
:1019500063001B197200033B9219CB18033A9E7067
:1019600088188A5C002A11D10470300070BD7300A1
:101970009B196200033B1219CB18033A9C7088181C
:101980008A5C002A05D106702000EFE75A700470C7
:10199000EBE75A700670F7E730B583600023CCB2EE
:1019A00043730133047342608373C4730D00006892
:1019B000012C06D9421C0133DBB2137003329C4266
:1019C000F9D1FF2129404B005B18C01800230338D0
:1019D000437030BD70B505000C1E07D06300016870
:1019E0001B19033BCB185A78002A01D1200070BD87
:1019F000500080180338091800204E7848702100E4
:101A000058702800FFF796FF310004002800FFF708
:101A1000E1FF0600002C26D00028E7D0210032008C
:101A2000A8686B689847296800280ED073009B1936
:101A30006200033B1219CB18033A9C7088188A5C29
:101A4000002A00D05A700670D0E763001B1972009C
:101A5000033B9219CB18033A9E7088188A5C002ABF
:101A600000D05A7004703400C0E7C046F0B5574645
:101A70004546DE464E46E0B50D006F0001687F1911
:101A8000033F0400C85D83B00192CA19002850D0FA
:101A900043001B18033BCB185E78B446002E1AD1C6
:101AA000019E002E42D0E67B002E04D073009B19CD
:101AB000CB18033B5D70A37B002B00D1A573E573AE
:101AC00000282FD10023537003B0F0BCBB46B246B0
:101AD000A946A046F0BD72006244033A8A185178C4
:101AE000884600215170894659703200010020005B
:101AF000FFF720FF43468246002B07D05B0021689A
:101B00004344033BCB185A78002A16D1424651462B
:101B10002000FFF70FFF2168019BCA19002BC2D1DB
:101B20000028CFD043001B18033BCB18002199702D
:101B3000C8E7019B002BB6D1C4E7500080180338DA
:101B40000918487883464846487058704146200036
:101B5000FFF7F0FE594680462000FFF73BFF414665
:101B600002002000FFF7E6FE8046CFE7F0B55746BB
:101B70004546DE464E46E0B583B00191457B040004
:101B80006F0000687F19033FC15DC219002952D060
:101B90004B005B18033BC3185E78B446002E1CD183
:101BA000019E002E44D0E67B002E04D073009B19CA
:101BB000C318033B5D70A37B002B00D1A573E573B5
:101BC000002931D1002328005370617303B0F0BCA9
:101BD000BB46B246A946A046F0BD72006244033A35
:101BE000821850788046002050708146587032002C
:101BF0002000FFF79FFE43468246002B07D05B0084
:101C000021684344033BCB185A78002A17D1424637
:101C100051462000FFF78EFE019B01002068C2198B
:101C2000002BC0D10029CDD04B005B18033BC3185B
:101C300000209870C6E7019B002BB4D1C2E750008A
:101C40008018033809184878834648464870587009
:101C500041462000FFF76EFE594680462000FFF700
:101C6000B9FE414602002000FFF764FE8046CEE741
:101C700070B5050000292CD0437B8B422ED04C0040
:101C800000686418033C0419A278002A21D053008C
:101C90009B18033BC25CC6188A4202D11BE0002A93
:101CA00008D053009B18033BC3185A788A42F6D1D8
:101CB00062785A70002301222800A3706370FFF736
:101CC000D5FE697B02002800FFF734FE687301200F
:101CD00000E0002070BD63783370EBE7012219004B
:101CE000FFF7C4FEF2E7C04610B50C2082B000F04A
:101CF00011FAFEF721FF002810D08B4B8B488B493F
:101D00008B4A186059609860D96018615961986170
:101D1000D961186259625A6202B010BD854CA06741
:101D200000F000FA0122844B1A60636C012BFCD195
:101D30000322824B1A607F4A936B012BFCD1013343
:101D400001217F4A7F480093043300F093F9052373
:101D50007D4A009301217D4800F08CF97C4B5A6844
:101D6000FF2A02D8802252005A608022734B6E4CA8
:101D700012011A602169002907D0606900F0E4FBB4
:101D8000013043001B18033BFDD2E022704B714829
:101D900019680A40026002221968514001320A4063
:101DA000042102609A681142FCD080216A4A09012C
:101DB0001160802252005A60684B2361684B596859
:101DC000FF2900D85A60032201215B4B1A60644A44
:101DD00093681942FCD0E023106803406148036017
:101DE000126803234A40022113405D4A036093684E
:101DF0001942FCD080215C4B0901196080215B4BAA
:101E00004900516063615A4B5A68FF2A00D85960F3
:101E10008022584B12011A60E169002907D06069DD
:101E200000F092FB013043001B18033BFDD2E0237E
:101E30004F4A11680B4050490B6080214F4B0901FC
:101E400019608021394B49005160E3614C4B5A685D
:101E5000FF2A00D8596080224A4B12011A60216A79
:101E6000002907D0606900F06FFB013043001B18A8
:101E7000033BFDD2E023424A11680B4042490B600C
:101E80008021424B0901196080235B00536080224E
:101E9000264BD20223623E4B5968914200D25A60CF
:101EA00080223C4B12011A60616A002907D06069E8
:101EB00000F04AFB013043001B18033BFDD2E02336
:101EC000334A11680B4034490B608021334B0901C0
:101ED00019608023DB025360154B6362304B5A68F4
:101EE000FF2A02D8802252005A6080222D4B120114
:101EF0001A60A169002907D0606900F025FB013054
:101F000043001B18033BFDD2E023254A11680B4018
:101F100025490B608021254B0901196080235B0056
:101F20005360124BA361F7E618030020006CDC023B
:101F30001BB70000008000403CB0004030B00040C3
:101F4000002F685900800240008C864700C0024084
:101F5000308000403090004030A00040001BB700AF
:101F60003C8000403C9000403CA00040405973073A
:101F70005480004054B000405490004054A00040B1
:101F80006080004060B000406090004060A0004071
:101F90006C8000406CB000406C9000406CA0004031
:101FA0004880004048B000404890004048A00040B1
:101FB000014B8000C058704718030020094A10B533
:101FC00094464024830063441A68C0006240803411
:101FD00014408022520113431C60034B9C46604412
:101FE000416010BD04C0014000400140074B80002B
:101FF0009C4660440368C90092000A435A400C237F
:102000001A4080235B0103431A60704704C00140FB
:10201000084B80009C466044002905D08023402264
:102020009B0103431A607047C02340229B01034376
:102030001A60F8E704C001400123D0228340120651
:1020400093629361094A40219446830063441A686D
:10205000C0004A4080311140802252011343196070
:10206000034B9C46052360444360704704C0014015
:1020700000400140F8B5040021481D0017000E0083
:1020800000F062FA0100380000F05EFA069B2904B5
:102090001B0319432368002B20DB1A4B1A4DE2184F
:1020A00053425A4180235B019C461203174B624402
:1020B0001A60174B1A601700AB689F43FBD1C02210
:1020C000231D92011A4321232660A0601360236818
:1020D000002BFCDA0823E1601360F8BD3F2322687F
:1020E0001340B342D9D1A3681B051B0D8342D4D141
:1020F000EE22E368D20213408B42CED1EDE7C04618
:10210000001BB7000040FDBF00C0004000E00040E1
:1021100000F000408023024A9B000343D3627047D3
:1021200000800540AA23064A1B0113602F2305499E
:10213000D360054B19605368002BFCDA7047C0462A
:102140000040024000B0FA0000600240012301217B
:10215000084A1360084A1360084A080093689843C5
:10216000FBD1074A11608021490013680B42FCD063
:102170007047C04600E0004000F0004000C0004052
:1021800000C00440F8B5CE464746040080B506209E
:102190000E00FFF70DFF051E51D0524B5249E218B9
:1021A00053425A418023DB039C4692054F4B6244C5
:1021B0001A604F4B1A6010008B689843FBD1494B53
:1021C0004C4AE31859424B4180215B0049000620EC
:1021D0009952FFF7EDFE3100C00000F0B5F9C309D8
:1021E00032D14022012190466162A362256BEB0748
:1021F00036D427008026E36A00232C3776013E433D
:10220000336006202563FFF7D3FE4146800000F0CF
:102210009BF9236B05009846DB073BD46023E26AF9
:102220005A400E3313403360434623638023102209
:102230009B013B431A60304B23630323A3642800B4
:10224000C0BCB946B046F8BD2C4A93423FD90023E2
:102250002B492C4A6162A362256B9046EB07C8D5D7
:102260002200C02330329B011343234A06201A6008
:10227000666AA36AB601F618FFF79AFE224900F0D3
:1022800063F9B6020100300000F05EF90021FFF7AB
:102290008BF8AEE72200C02330329B011343164A6D
:1022A00006201A60636AA26A9B0199469144FFF76F
:1022B0007FFE4B4614499B02994600F045F9010008
:1022C000484600F041F90021FFF76EF8A6E77F22AB
:1022D00099018846024001325208190090441300C7
:1022E00082E7C0460080FCBF00C0004000E0004024
:1022F00000F00040FC07002001030000FEFF00008A
:10230000FFFF0000C0FF3F004E0E00002C4B2D4A87
:1023100070B51A602C4A2D4B2D491A6014008B6839
:102320009C43FBD12B4D2C4EB54208D2013E761B6F
:10233000B60808CD984723000134B342F9D1FFF71E
:10234000D3FC264A214B1A60214A9368DB43DB0108
:10235000DD09002BF9D14022214B224C224E9A67F5
:102360005A671A67DA66B44208D223682000002B45
:1023700020D00834FFF7D0FAB442F6D31B4C1C4EE1
:10238000C022B168200000F0D1F9B460FEF7FEFB76
:10239000FFF79AFAFEF7A6FD164C174EB44208D284
:1023A000013E361BB60808CC98472B0001359E42EB
:1023B000F9D170BD0834FFF7A1FAB442D5D3DDE7F7
:1023C00000E00040BFCDFBFEFE7F3C0000F000407F
:1023D00000C000400003002010030020FFFFFF01A9
:1023E00000F00140F802002000030020000000205F
:1023F00000ED00E0100300201403002000BEFDE704
:1024000010B5FFF7FBFFC0460FB400B5084883B016
:1024100000F03CFA049B002B07D005A9180001919D
:1024200000F018F8034800F031FA0120FFF7E6FF4A
:102430003C2C00104C2C001010B50148FFF7E4FFB5
:10244000502C001010B5002800D110BD00F0D2F9BA
:10245000FBE7C04610B5094A0300146884B0002C9D
:1024600008D0012200910648524203A9A04701204A
:1024700004B010BD00F00AFA0020F9E7D0070020F0
:102480004524001001480421014B1847C0020020D8
:10249000B5240010142310B50100188804331B88DC
:1024A000984710BD162310B50100188802331B8809
:1024B000984710BDF8B54746CE4680B50F1E19D0D7
:1024C00014239946043304000025012698464B4600
:1024D0001888434621681B88984701C4431E9841C9
:1024E000013540420640AF42F1D13000C0BCB94690
:1024F000B046F8BD0126F8E7124A936F9B0815D243
:102500009066D166002905D0FFE7FFE7FFE7516F2E
:10251000106F704704B580210906C217514000288A
:1025200000D0C84300F068FB002104BDF0B5146E74
:10253000556E576F166FFFF7E3FF146655665767C2
:102540001667F0BD000000D0114A936F9B0813D2AC
:1025500010665166002905D0FFE7FFE7FFE7516FDE
:10256000106F704704B5002801D00020C04300F070
:1025700043FB002104BDC046F0B5146E556E576F85
:10258000166FFFF7E5FF1466556657671667F0BDCF
:10259000000000D0132370B51D78012D15D010DD7B
:1025A0001D48FFF77FFF1D4C01008022200000F036
:1025B000BDF8022D2DD01A48FFF76CFF194B18609B
:1025C00070BD194B154CA364F5E7174B134C2360F2
:1025D0006360A360E36023616361A361E3612362DD
:1025E0006362A362E36223636363A363E3632364BD
:1025F0006364A364E36423656365A365E36523669D
:102600006366A366E36623676367A367E367A36400
:10261000D1E7054BA364CEE75344000040040020FB
:102620004C330000E40700202D26001007B560465B
:1026300001880A0A0230DF2AFAD1C9B2820804D31B
:10264000028840880004104300E00068014A5050AE
:10265000039007BD4004002051434343C9188C46F2
:10266000110C83B24B4310B4040C614392B280B29C
:10267000504362431C041B0C001910BC5941130445
:10268000120CC0185141614470470000132310B56B
:1026900012481C78FFF706FF0100012C0AD003DD69
:1026A00080220F4800F042F80E48FFF7F3FE0E4B71
:1026B000186010BD0A4C5422200000F037F80B4B74
:1026C0006365A365E36523666366A366E3662367C4
:1026D0006367A367E3672362E361E5E753460000AE
:1026E000400500204C330000E4070020F1260010D4
:1026F00007B5604601880A0A0230DF2AFAD1C9B25A
:10270000820804D3028840880004104300E0006877
:10271000014A5050039007BD4005002001480421A4
:10272000014B1847D0020020B5240010014B5B6814
:1027300018470000D0020020F0B546464F46D64666
:10274000C0B5437D80460E001700002B4BD0002AF9
:1027500032DD274B01259A464B1E00240020994666
:1027600007E0335D0A2B2CD02B0001340135BB422E
:1027700013DA002CF5D133780A2BF5D143461B7DB3
:10278000002BF1D14346504602211B689847280090
:102790002B0001340135BB42EBDB874204DD4346AD
:1027A000391A1B6830189847F619013E33780D3BEB
:1027B0005A42534142461375E0BCBA46B146A84658
:1027C000F0BD4B461B5D0D2BCED0A042DADA43465E
:1027D000211A1B68301898474346504602211B684F
:1027E00098472800D4E70368110030009847E3E7D2
:1027F000BC2C0010F0B5CE46474680B583B06B4682
:102800000600DD1D2870FEF7C5FD00231A4A1218C8
:102810004B41802109068B4202D30122174B5242C1
:1028200017490800884600F0EFF9164B81461C68EE
:10283000002C14D0144F02E02469002C0FD0236820
:10284000002BF9D03B68002B01D0A342F4D120002B
:1028500001222900FFF770FF2469002CEFD14B46BD
:10286000002B05D1300003B0C0BCB946B046F0BD66
:10287000404600F0B9F9F5E740420F00FFFFFF7F47
:10288000F8020020B8070020BC070020F0B5DE46A3
:1028900057464E464546E0B585B0070000F074F94E
:1028A0000600FEF777FD00232B4A12184B418021CA
:1028B00009068B4202D30122284B524228490800C4
:1028C0008B4600F0A1F9274B01901C689A46002C1A
:1028D0003BD0254B984602ABDD1D0A23994602E00A
:1028E0002469002C17D02368002BF9D043461B68BD
:1028F000002B01D0A342F3D1200032003900FFF7B2
:102900001BFF4B462000012229002B70FFF714FF0C
:102910002469002CE7D1019B002B18D153461C6879
:10292000002C06D06368002B0BD098472469002C3C
:10293000F8D1300005B0F0BCBB46B246A946A0466F
:10294000F0BD2469002CEDD1F3E70028F1D0584602
:1029500000F04AF9E2E7C04640420F00FFFFFF7F68
:10296000F8020020B8070020BC0700200A4A1368BC
:10297000002B05D10CE01A001B691032002B07D088
:102980009842F8D1002902D10369136001617047B0
:102990000029FCD01060FAE7B807002010B500F05D
:1029A000CFF8012010BDC046F0B5002915DD0E4B53
:1029B0000D271A680D4B0E4CD3185D426B4145181C
:1029C00020215B001E5F0478A64207D0936919425C
:1029D000FCD101301460A842F5D1F0BD93691942D1
:1029E000FCD11760F2E7C046000800200080FCBF61
:1029F000FC07002030B504000D1E30DD0020102142
:102A0000204B013C1A689369194217D10130936930
:102A10001942FCD1136823548542F4D11A4B1B6828
:102A2000002B09D0502338219363536B3432194063
:102A300080235B011343196028000FE0124B1B68D1
:102A4000002B09D0502338219363536B3432194043
:102A500080235B011A431160002810D030BD0A4B5F
:102A60001B68002B0BD050223821064B1B689A6341
:102A70005A6B3433114080225201134319600320F2
:102A80004042EBE7000800206C060020064B10B522
:102A90001B68002B06D00021044A12689163044A87
:102AA0001068984710BDC0466C0600200008002042
:102AB000700600201D4BF0B51A68C64698461C4BA0
:102AC0000E00D31859424B411A4F14331C00050015
:102AD00000B53B68002807D0002B11D0164B3D6095
:102AE0001E6080BCB846F0BD002BF7D0906300217B
:102AF0002000FEF769FD20001049FEF7A9FDEDE773
:102B000020000E49FEF77AFD01212000FEF75CFD52
:102B10004346502238211B689A635A6B3433114064
:102B20008022520113431960D8E7C04600080020F4
:102B30000080FCBF6C060020700600208D2A00106B
:102B40000C4B10B51B780C4B0C4C1B780C4B02211A
:102B500000202360FFF732FA02210120FFF72EFA4E
:102B6000E12120684902FFF70DFB01210548FFF72D
:102B7000FDFE10BD202D00101C2D001000080020AF
:102B800000400340E002002010B583070AD0030094
:102B9000032102E001330B4205D01A78002AF9D153
:102BA000181A10BD030019680C4A0D4C8A188A4384
:102BB00022420FD15968094A04338A188A432242B3
:102BC00008D15968054A04338A188A432242F1D051
:102BD00000E001331A78002AFBD1E1E7FFFEFEFE98
:102BE00080808080F8B5C04601B40248844601BCAC
:102BF000604700BFF501002001B40248844601BCD3
:102C0000604700BF1D02002001B40248844601BC99
:082C1000604700BF59010020DC
:102C1800486172647761726520616C61726D20250C
:102C28006420616C726561647920636C61696D65AB
:102C3800640000000A2A2A2A2050414E4943202ACB
:102C48002A2A0A000A00000048617264206173732E
:102C58006572740052656C6561736500626F6F74AC
:102C6800325F77323571303830000000312E352E22
:102C7800310000007069636F0000000074657374B0
:102C880000000000417567203135203230323400B1
:102C980006005250D3F075425C2C001006005250CA
:102CA800E182887F642C001006005250BBFF3CB6BE
:102CB8007C2C00100D0A0000554152542073746496
:102CC800696E000055415254207374646F75740026
:102CD8005541525420737464696E202F20737464B4
:102CE8006F7574000600525053B4F4A1D82C00102C
:082CF800080052509200000098
:102D0000982C0010A42C001088020010B02C001089
:102D100094020010A0020010AC020010F82C001069
:042D2000EC2C001087
:102D2400F0B5EFF30583C6461E0000B5273E272BFA
:102D340033D11E4F3D68EC6A002C2BD063062ED590
:102D44006B6D630500D56B6EA3052CD4184BF20094
:102D5400991888460979002906D0D35802213800E9
:102D64009847002342461371630708D50120104B8E
:102D7400F20099180871D358002138009847A40626
:102D840008D501212B6D0A4BF6009A193800F35827
:102D94001171984780BCB846F0BD064FCAE7630579
:102DA400D1D4A305E0D52B6ED0E7C046380200206D
:102DB400C007002030020020F0B5C646150000B55B
:102DC40004001E000268EFF3108172B61368002B32
:102DD400FCD0BFF35F8F0423E356002B2DDB226866
:102DE400BFF35F8F0020106081F31088D022120699
:102DF400127852B290469A4203D1002080BCB84661
:102E0400F0BD00270BE02368BFF35F8F1F6081F3E1
:102E140010882800310000F033F80028EDD1226832
:102E2400EFF3108172B61368002BFCD0BFF35F8FF1
:102E340023797F2BE7D9434602E0D0231B061B6886
:102E440023712368BFF35F8F00221A6081F3108817
:102E54000120D3E70268EFF3108172B61368002BE8
:102E6400FCD0BFF35F8FFF2303710368BFF35F8F51
:102E740000221A6081F3108840BF70477047C04633
:102E840001B40248844601BC604700BFD51100105C
:102E940000800440000000000040044000000000E6
:102EA400100000005C02002000000000400300202D
:102EB40078070020000000000000000088070020C0
:102EC40000000000000000001000000000000000EE
:102ED40000000100000000000000000000000200EB
:102EE40000000000000000000000030000000000DB
:102EF400000000000000FF000000000001B5486869
:102F040001318E460047704609380149884701BDA2
:102F14001518001000000000000000000000000070
:102F2400503300004C33000054330000523300008F
:102F34004D5300004D43000053340000433400005F
:102F4400A929001000000000F5290010B52A00107E
:102F5400000000000001000000000000000000006C
:102F64001D27001085240010952500108D260010C3
:042F74003103001015
:04000005100001E9FD
:00000001FF
